:100000000C942A000C944C000C9478000C94A400DE
:100010000C9447000C9447000C9447000C94470044
:100020000C9447000C9447000C9442020C941B0261
:100030000C9447000C9447000C9447000C94470024
:100040000C94F4010C9447000C9447000C94470066
:100050000C94470011241FBECFE5D8E0DEBFCDBF12
:1000600010E0A0E6B0E0E8E8FEE002C005900D92E6
:10007000A036B107D9F720E0A0E6B0E001C01D929C
:10008000AA3AB207E1F70E9459050C9442070C9472
:100090000000789480E008951F920F920FB60F929F
:1000A00011242F933F934F935F936F937F938F937D
:1000B0009F93AF93BF93EF93FF93E0916000F09114
:1000C0006100309721F009958AB78F7B8ABFFF9135
:1000D000EF91BF91AF919F918F917F916F915F91C0
:1000E0004F913F912F910F900FBE0F901F90189539
:1000F0001F920F920FB60F9211242F933F934F939D
:100100005F936F937F938F939F93AF93BF93EF937F
:10011000FF93E0916200F0916300309721F0099520
:100120008AB78F778ABFFF91EF91BF91AF919F916F
:100130008F917F916F915F914F913F912F910F9090
:100140000FBE0F901F9018951F920F920FB60F922F
:1001500011242F933F934F935F936F937F938F93CC
:100160009F93AF93BF93EF93FF93E0916400F0915F
:100170006500309721F009958AB78F7D8ABFFF917E
:10018000EF91BF91AF919F918F917F916F915F910F
:100190004F913F912F910F900FBE0F901F90189588
:1001A000811110C087B18F7E87B987B1877F87B9EA
:1001B00087B18B7F87B987B18D7F87B987B18E7FF4
:1001C00087B90895813081F487B18F7E87B987B16F
:1001D000877F87B987B18B7F87B987B18D7F87B9D3
:1001E00087B1816087B90895823081F487B18F7EAD
:1001F00087B987B1877F87B987B18B7F87B987B187
:10020000826087B987B18E7F87B90895833081F482
:1002100087B18F7E87B987B1877F87B987B18B7F99
:1002200087B987B1826087B987B1816087B908953E
:10023000843081F487B18F7E87B987B1877F87B992
:1002400087B1846087B987B18D7F87B987B18E7F89
:1002500087B90895853081F487B18F7E87B987B1DA
:10026000877F87B987B1846087B987B18D7F87B968
:1002700087B1816087B90895863081F487B18F7E18
:1002800087B987B1877F87B987B1846087B987B11C
:10029000826087B987B18E7F87B90895873081F4EE
:1002A00087B18F7E87B987B1877F87B987B184602F
:1002B00087B987B1826087B987B1816087B90895AE
:1002C000883081F487B18F7E87B987B1886087B91C
:1002D00087B18B7F87B987B18D7F87B987B18E7FD3
:1002E00087B90895893081F487B18F7E87B987B146
:1002F000886087B987B18B7F87B987B18D7F87B9D0
:1003000087B1816087B908958A3081F487B18F7E83
:1003100087B987B1886087B987B18B7F87B987B183
:10032000826087B987B18E7F87B908958B3079F461
:1003300087B18F7E87B987B1886087B987B18B7F96
:1003400087B987B1826087B987B1816087B908951D
:1003500086B1806886B9089580B78F7780BF80B7EF
:100360008F7B80BF80B78F7D80BF089586B180610D
:1003700086B986B18F7B86B9089586B1806486B9C7
:100380000E94B601089586B1886086B9089586B145
:10039000877F86B9089586B1846086B986B1826008
:1003A00086B986B1816086B9089587B18F7D87B996
:1003B00087B18F7787B987B1806487B90E94C301FD
:1003C0000E94AC010E94CB010E94A801089524B1B3
:1003D00035B1FC01318320830895009721F090937B
:1003E00081008093800008951F920F920FB60F92A4
:1003F00011242F933F934F935F936F937F938F932A
:100400009F93AF93BF93EF93FF93E0918000F091A0
:1004100081000995FF91EF91BF91AF919F918F91CD
:100420007F916F915F914F913F912F910F900FBEF0
:100430000F901F9018951F920F920FB60F921124D4
:100440002F933F934F935F936F937F938F939F93DC
:10045000AF93BF93EF93FF93E0918200F0918300FD
:100460000995FF91EF91BF91AF919F918F917F91EE
:100470006F915F914F913F912F910F900FBE0F9011
:100480001F9018951F920F920FB60F9211242F9361
:100490003F934F935F936F937F938F939F93AF930C
:1004A000BF93EF93FF93E0918400F091850009954D
:1004B000FF91EF91BF91AF919F918F917F916F913C
:1004C0005F914F913F912F910F900FBE0F901F9012
:1004D000189541E00E94A706089540E00E94A706F3
:1004E0000895CF93DF93C82FD62F41E00E941B06BB
:1004F0006D2F8C2F0E946D02DF91CF910895FF9296
:100500000F931F93CF93DF93C82FF62E142FD22F64
:100510000E947102612F8C2F0E9471026D2F8C2F0F
:100520000E947102602F8C2F0E94710263E081E4AF
:100530000E94710262E081E40E94710265E082E43F
:100540000E94710266E082E40E947102E6E9F0E036
:10055000F0821183D2830383C483DF91CF911F91F3
:100560000F91FF900895CF93DF93813099F4C6E9FE
:10057000D0E068818C810E94690269818C810E942F
:100580006D026A818C810E946D026B818C810E9458
:100590006D02CFC0823099F4C6E9D0E068818C81C9
:1005A0000E946D0269818C810E9469026A818C813E
:1005B0000E946D026B818C810E946D02BAC08330F3
:1005C00099F4C6E9D0E068818C810E946902698152
:1005D0008C810E9469026A818C810E946D026B810C
:1005E0008C810E946D02A5C0843099F4C6E9D0E0E8
:1005F00068818C810E946D0269818C810E946D02EC
:100600006A818C810E9469026B818C810E946D02DB
:1006100090C0853099F4C6E9D0E068818C810E9451
:10062000690269818C810E946D026A818C810E94BD
:1006300069026B818C810E946D027BC0863099F4C7
:10064000C6E9D0E068818C810E946D0269818C814D
:100650000E9469026A818C810E9469026B818C818F
:100660000E946D0266C0873099F4C6E9D0E06881C7
:100670008C810E94690269818C810E9469026A8171
:100680008C810E9469026B818C810E946D0251C035
:10069000883099F4C6E9D0E068818C810E946D02AF
:1006A00069818C810E946D026A818C810E946D0239
:1006B0006B818C810E9469023CC0893099F4C6E943
:1006C000D0E068818C810E94690269818C810E94DE
:1006D0006D026A818C810E946D026B818C810E9407
:1006E000690227C0811113C0C6E9D0E068818C81FE
:1006F0000E946D0269818C810E946D026A818C81E9
:100700000E946D026B818C810E946D0212C0C6E94D
:10071000D0E068818C810E946D0269818C810E9489
:100720006D026A818C810E946D026B818C810E94B6
:100730006D02DF91CF910895AF92BF92CF92DF9279
:10074000EF92FF920F931F93CF93DF93CDB7DEB756
:10075000AC01EDB6FEB60097B1F09C01C12CD12CD6
:100760000EC0ADECBCEC0E9433079C01369527957A
:1007700036952795369527958FEFC81AD80A2115F3
:10078000310579F703C0CC24C394D12CC60101965E
:10079000EDB7FEB7E81BF90B0FB6F894FEBF0FBE1E
:1007A000EDBF0DB71EB70F5F1F4F5801E0E0F0E03F
:1007B0009A01ADECBCEC0E9433079695879596950F
:1007C0008795969587959C01220F331F880F991F57
:1007D000880F991F880F991F820F931F9A01281B5A
:1007E000390BD501AE0FBF1F2C9331969A01ADEC9A
:1007F000BCEC0E943307AC0156954795569547953A
:10080000569547954115510599F6E00FF11F108255
:1008100031E0C316D104C9F4F80180810E94B3020B
:1008200040E063E081E40E94A70641E062E081E4E9
:100830000E94A70641E065E082E40E94A70641E02D
:1008400066E082E40E94A7061EC1F2E0CF16D10442
:10085000E9F5F80180810E94B30240E063E081E4A1
:100860000E94A70641E062E081E40E94A70641E001
:1008700065E082E40E94A70641E066E082E40E940F
:10088000A7068FE79EE30197F1F700C00000F8018B
:1008900081810E94B30241E063E081E40E94A706E7
:1008A00040E062E081E40E94A70641E065E082E466
:1008B0000E94A70641E066E082E40E94A7068FE757
:1008C0009EE30197F1F700C00000DDC093E0C91678
:1008D000D10409F05BC0F80180810E94B30240E0BE
:1008E00063E081E40E94A70641E062E081E40E94A7
:1008F000A70641E065E082E40E94A70641E066E0C9
:1009000082E40E94A7068FE79EE30197F1F700C0FB
:100910000000F80181810E94B30241E063E081E4BC
:100920000E94A70640E062E081E40E94A70641E041
:1009300065E082E40E94A70641E066E082E40E944E
:10094000A7068FE79EE30197F1F700C00000F801CA
:1009500082810E94B30241E063E081E40E94A70625
:1009600041E062E081E40E94A70640E065E082E4A5
:100970000E94A70641E066E082E40E94A7068FE796
:100980009EE30197F1F700C000007DC094E0C91616
:10099000D10409F078C0F80180810E94B30240E0E0
:1009A00063E081E40E94A70641E062E081E40E94E6
:1009B000A70641E065E082E40E94A70641E066E008
:1009C00082E40E94A7068FE79EE30197F1F700C03B
:1009D0000000F80181810E94B30241E063E081E4FC
:1009E0000E94A70640E062E081E40E94A70641E081
:1009F00065E082E40E94A70641E066E082E40E948E
:100A0000A7068FE79EE30197F1F700C00000F80109
:100A100082810E94B30241E063E081E40E94A70664
:100A200041E062E081E40E94A70640E065E082E4E4
:100A30000E94A70641E066E082E40E94A7068FE7D5
:100A40009EE30197F1F700C00000F80183810E9446
:100A5000B30241E063E081E40E94A70641E062E066
:100A600081E40E94A70641E065E082E40E94A706B7
:100A700040E066E082E40E94A7068FE79EE30197CC
:100A8000F1F700C000000FB6F894FEBE0FBEEDBE39
:100A9000DF91CF911F910F91FF90EF90DF90CF905A
:100AA000BF90AF90089581E0809390000E94C701AD
:100AB000089567E082E40E94710267E082E40E9488
:100AC0006D0240E060E081E40E941B0640E061E0CE
:100AD00081E40E941B0640E064E081E40E941B0662
:100AE00040E067E081E40E941B0604E022E041E070
:100AF00060E082E40E947F0283E595E00E94ED01C0
:100B00000E9449000E94D50180918F000E94D00070
:100B10000E94BD010E94BD0180918F000E94D00003
:100B200080919000813009F071C08EE990E00E94C0
:100B3000E7011092900080918E00811119C081E030
:100B400080938F0080919E0090919F008436910544
:100B500038F081E090E09093A1008093A00004C061
:100B60001092A1001092A00081E080938E004EC0F0
:100B70008130C9F484E080938F0080919E00909131
:100B80009F008436910538F081E090E09093A300B7
:100B90008093A20004C01092A3001092A20082E0F1
:100BA00080938E0033C08230C9F487E080938F0039
:100BB00080919E0090919F008436910538F081E0ED
:100BC00090E09093A5008093A40004C01092A5002B
:100BD0001092A40083E080938E0018C08330B1F49B
:100BE00010928F0080919E0090919F008436910515
:100BF00038F081E090E09093A7008093A60004C0B5
:100C00001092A7001092A60010928E00E0EAF0E089
:100C10002081318182819381820F931F24813581CC
:100C2000820F931F26813781820F931F0E949C039E
:100C30000E94C3016FCF823449F118F4813441F02E
:100C40007DC0833409F440C0843409F45AC076C0AE
:100C500041110DC02AB381E090E002C0880F991FB6
:100C60006A95E2F7809582238ABB80E0089541303F
:100C700009F065C02AB381E090E002C0880F991F97
:100C80006A95E2F7822B8ABB80E0089541110DC07E
:100C900027B381E090E002C0880F991F6A95E2F7C0
:100CA0008095822387BB80E00895413009F049C0D8
:100CB00027B381E090E002C0880F991F6A95E2F7A0
:100CC000822B87BB80E0089541110DC024B381E0E1
:100CD00090E002C0880F991F6A95E2F78095822301
:100CE00084BB80E00895413071F524B381E090E049
:100CF00002C0880F991F6A95E2F7822B84BB80E0BF
:100D0000089541110DC021B381E090E002C0880F29
:100D1000991F6A95E2F78095822381BB80E0089550
:100D2000413099F421B381E090E002C0880F991F0F
:100D30006A95E2F7822B81BB80E00895089581E0F7
:100D4000089581E0089581E0089581E00895823456
:100D500049F118F4813441F07DC0833409F440C076
:100D6000843409F45AC076C041110DC02BB381E020
:100D700090E002C0880F991F6A95E2F78095822360
:100D80008BBB80E00895413009F065C02BB381E052
:100D900090E002C0880F991F6A95E2F7822B8BBB07
:100DA00080E0089541110DC028B381E090E002C0B9
:100DB000880F991F6A95E2F78095822388BB80E0AF
:100DC0000895413009F049C028B381E090E002C0A5
:100DD000880F991F6A95E2F7822B88BB80E00895FF
:100DE00041110DC025B381E090E002C0880F991F2A
:100DF0006A95E2F78095822385BB80E008954130B3
:100E000071F525B381E090E002C0880F991F6A95C3
:100E1000E2F7822B85BB80E0089541110DC022B31B
:100E200081E090E002C0880F991F6A95E2F78095F3
:100E3000822382BB80E00895413099F422B381E09F
:100E400090E002C0880F991F6A95E2F7822B82BB5F
:100E500080E00895089581E0089581E0089581E09B
:100E6000089581E00895A29FB001B39FC001A39FA0
:100E7000700D811D1124911DB29F700D811D1124D3
:080E8000911D0895F894FFCFC5
:00000001FF
